{"abi":[{"type":"constructor","inputs":[{"name":"_swapRouter","type":"address","internalType":"address"}],"stateMutability":"nonpayable"},{"type":"function","name":"batchPay","inputs":[{"name":"token","type":"address","internalType":"address"},{"name":"recipients","type":"address[]","internalType":"address[]"},{"name":"amounts","type":"uint256[]","internalType":"uint256[]"}],"outputs":[],"stateMutability":"nonpayable"},{"type":"function","name":"deposit","inputs":[{"name":"token","type":"address","internalType":"address"},{"name":"amount","type":"uint256","internalType":"uint256"},{"name":"durationDays","type":"uint256","internalType":"uint256"}],"outputs":[],"stateMutability":"nonpayable"},{"type":"function","name":"getBalances","inputs":[{"name":"wallet","type":"address","internalType":"address"},{"name":"tokens","type":"address[]","internalType":"address[]"}],"outputs":[{"name":"balances","type":"uint256[]","internalType":"uint256[]"}],"stateMutability":"view"},{"type":"function","name":"getLocks","inputs":[{"name":"wallet","type":"address","internalType":"address"}],"outputs":[{"name":"","type":"tuple[]","internalType":"struct FinanceManagerTest.Lock[]","components":[{"name":"token","type":"address","internalType":"address"},{"name":"amount","type":"uint256","internalType":"uint256"},{"name":"unlockTime","type":"uint256","internalType":"uint256"},{"name":"withdrawn","type":"bool","internalType":"bool"}]}],"stateMutability":"view"},{"type":"function","name":"locks","inputs":[{"name":"","type":"address","internalType":"address"},{"name":"","type":"uint256","internalType":"uint256"}],"outputs":[{"name":"token","type":"address","internalType":"address"},{"name":"amount","type":"uint256","internalType":"uint256"},{"name":"unlockTime","type":"uint256","internalType":"uint256"},{"name":"withdrawn","type":"bool","internalType":"bool"}],"stateMutability":"view"},{"type":"function","name":"owner","inputs":[],"outputs":[{"name":"","type":"address","internalType":"address"}],"stateMutability":"view"},{"type":"function","name":"recoverToken","inputs":[{"name":"token","type":"address","internalType":"address"},{"name":"amount","type":"uint256","internalType":"uint256"}],"outputs":[],"stateMutability":"nonpayable"},{"type":"function","name":"renounceOwnership","inputs":[],"outputs":[],"stateMutability":"nonpayable"},{"type":"function","name":"setSwapRouter","inputs":[{"name":"newRouter","type":"address","internalType":"address"}],"outputs":[],"stateMutability":"nonpayable"},{"type":"function","name":"swap","inputs":[{"name":"tokenIn","type":"address","internalType":"address"},{"name":"tokenOut","type":"address","internalType":"address"},{"name":"amountIn","type":"uint256","internalType":"uint256"},{"name":"amountOutMin","type":"uint256","internalType":"uint256"},{"name":"fee","type":"uint24","internalType":"uint24"}],"outputs":[{"name":"amountOut","type":"uint256","internalType":"uint256"}],"stateMutability":"nonpayable"},{"type":"function","name":"swapRouter","inputs":[],"outputs":[{"name":"","type":"address","internalType":"address"}],"stateMutability":"view"},{"type":"function","name":"transferOwnership","inputs":[{"name":"newOwner","type":"address","internalType":"address"}],"outputs":[],"stateMutability":"nonpayable"},{"type":"function","name":"withdraw","inputs":[{"name":"lockIndex","type":"uint256","internalType":"uint256"}],"outputs":[],"stateMutability":"nonpayable"},{"type":"event","name":"BatchPaid","inputs":[{"name":"sender","type":"address","indexed":true,"internalType":"address"},{"name":"token","type":"address","indexed":true,"internalType":"address"},{"name":"totalAmount","type":"uint256","indexed":false,"internalType":"uint256"},{"name":"recipientCount","type":"uint256","indexed":false,"internalType":"uint256"}],"anonymous":false},{"type":"event","name":"Deposited","inputs":[{"name":"user","type":"address","indexed":true,"internalType":"address"},{"name":"token","type":"address","indexed":true,"internalType":"address"},{"name":"amount","type":"uint256","indexed":false,"internalType":"uint256"},{"name":"unlockTime","type":"uint256","indexed":false,"internalType":"uint256"}],"anonymous":false},{"type":"event","name":"OwnershipTransferred","inputs":[{"name":"previousOwner","type":"address","indexed":true,"internalType":"address"},{"name":"newOwner","type":"address","indexed":true,"internalType":"address"}],"anonymous":false},{"type":"event","name":"SwapRouterUpdated","inputs":[{"name":"oldRouter","type":"address","indexed":true,"internalType":"address"},{"name":"newRouter","type":"address","indexed":true,"internalType":"address"}],"anonymous":false},{"type":"event","name":"Swapped","inputs":[{"name":"user","type":"address","indexed":true,"internalType":"address"},{"name":"tokenIn","type":"address","indexed":false,"internalType":"address"},{"name":"tokenOut","type":"address","indexed":false,"internalType":"address"},{"name":"amountIn","type":"uint256","indexed":false,"internalType":"uint256"},{"name":"amountOut","type":"uint256","indexed":false,"internalType":"uint256"}],"anonymous":false},{"type":"event","name":"Withdrawn","inputs":[{"name":"user","type":"address","indexed":true,"internalType":"address"},{"name":"lockIndex","type":"uint256","indexed":true,"internalType":"uint256"},{"name":"amount","type":"uint256","indexed":false,"internalType":"uint256"}],"anonymous":false},{"type":"error","name":"OwnableInvalidOwner","inputs":[{"name":"owner","type":"address","internalType":"address"}]},{"type":"error","name":"OwnableUnauthorizedAccount","inputs":[{"name":"account","type":"address","internalType":"address"}]},{"type":"error","name":"ReentrancyGuardReentrantCall","inputs":[]},{"type":"error","name":"SafeERC20FailedOperation","inputs":[{"name":"token","type":"address","internalType":"address"}]}],"bytecode":{"object":"0x608060405234801561000f575f5ffd5b50604051612ac7380380612ac7833981810160405281019061003191906102db565b335f73ffffffffffffffffffffffffffffffffffffffff168173ffffffffffffffffffffffffffffffffffffffff16036100a2575f6040517f1e4fbdf70000000000000000000000000000000000000000000000000000000081526004016100999190610315565b60405180910390fd5b6100b18161018a60201b60201c565b5060016100d06100c561024b60201b60201c565b61027460201b60201c565b5f01819055505f73ffffffffffffffffffffffffffffffffffffffff168173ffffffffffffffffffffffffffffffffffffffff1603610144576040517f08c379a000000000000000000000000000000000000000000000000000000000815260040161013b90610388565b60405180910390fd5b8060015f6101000a81548173ffffffffffffffffffffffffffffffffffffffff021916908373ffffffffffffffffffffffffffffffffffffffff160217905550506103a6565b5f5f5f9054906101000a900473ffffffffffffffffffffffffffffffffffffffff169050815f5f6101000a81548173ffffffffffffffffffffffffffffffffffffffff021916908373ffffffffffffffffffffffffffffffffffffffff1602179055508173ffffffffffffffffffffffffffffffffffffffff168173ffffffffffffffffffffffffffffffffffffffff167f8be0079c531659141344cd1fd0a4f28419497f9722a3daafe3b4186f6b6457e060405160405180910390a35050565b5f7f9b779b17422d0df92223018b32b4d1fa46e071723d6817e2486d003becc55f005f1b905090565b5f819050919050565b5f5ffd5b5f73ffffffffffffffffffffffffffffffffffffffff82169050919050565b5f6102aa82610281565b9050919050565b6102ba816102a0565b81146102c4575f5ffd5b50565b5f815190506102d5816102b1565b92915050565b5f602082840312156102f0576102ef61027d565b5b5f6102fd848285016102c7565b91505092915050565b61030f816102a0565b82525050565b5f6020820190506103285f830184610306565b92915050565b5f82825260208201905092915050565b7f496e76616c696420726f757465720000000000000000000000000000000000005f82015250565b5f610372600e8361032e565b915061037d8261033e565b602082019050919050565b5f6020820190508181035f83015261039f81610366565b9050919050565b612714806103b35f395ff3fe608060405234801561000f575f5ffd5b50600436106100cd575f3560e01c80638da5cb5b1161008a578063b425f80211610064578063b425f802146101f9578063c31c9c071461022c578063dcf06eb81461024a578063f2fde38b14610266576100cd565b80638da5cb5b1461018f578063b29a8140146101ad578063b40b7e0b146101c9576100cd565b80630efe6a8b146100d15780632e1a7d4d146100ed57806341273657146101095780636a385ae914610125578063715018a614610155578063719f30891461015f575b5f5ffd5b6100eb60048036038101906100e6919061189a565b610282565b005b610107600480360381019061010291906118ea565b61054e565b005b610123600480360381019061011e9190611915565b610727565b005b61013f600480360381019061013a91906119a1565b61085b565b60405161014c9190611ab5565b60405180910390f35b61015d6109e9565b005b61017960048036038101906101749190611915565b6109fc565b6040516101869190611bf9565b60405180910390f35b610197610b17565b6040516101a49190611c28565b60405180910390f35b6101c760048036038101906101c29190611c41565b610b3e565b005b6101e360048036038101906101de9190611cb7565b610b7c565b6040516101f09190611d3d565b60405180910390f35b610213600480360381019061020e9190611c41565b610fea565b6040516102239493929190611d65565b60405180910390f35b61023461105b565b6040516102419190611c28565b60405180910390f35b610264600480360381019061025f9190611dfd565b611080565b005b610280600480360381019061027b9190611915565b6113ec565b005b61028a611470565b5f73ffffffffffffffffffffffffffffffffffffffff168373ffffffffffffffffffffffffffffffffffffffff16036102f8576040517f08c379a00000000000000000000000000000000000000000000000000000000081526004016102ef90611ee8565b60405180910390fd5b5f821161033a576040517f08c379a000000000000000000000000000000000000000000000000000000000815260040161033190611f50565b60405180910390fd5b5f811161037c576040517f08c379a000000000000000000000000000000000000000000000000000000000815260040161037390611fb8565b60405180910390fd5b6103a93330848673ffffffffffffffffffffffffffffffffffffffff16611492909392919063ffffffff16565b5f6001826103b79190612003565b426103c29190612044565b905060025f3373ffffffffffffffffffffffffffffffffffffffff1673ffffffffffffffffffffffffffffffffffffffff1681526020019081526020015f2060405180608001604052808673ffffffffffffffffffffffffffffffffffffffff1681526020018581526020018381526020015f1515815250908060018154018082558091505060019003905f5260205f2090600402015f909190919091505f820151815f015f6101000a81548173ffffffffffffffffffffffffffffffffffffffff021916908373ffffffffffffffffffffffffffffffffffffffff16021790555060208201518160010155604082015181600201556060820151816003015f6101000a81548160ff02191690831515021790555050508373ffffffffffffffffffffffffffffffffffffffff163373ffffffffffffffffffffffffffffffffffffffff167ff5681f9d0db1b911ac18ee83d515a1cf1051853a9eae418316a2fdf7dea427c58584604051610538929190612077565b60405180910390a3506105496114e7565b505050565b610556611470565b5f60025f3373ffffffffffffffffffffffffffffffffffffffff1673ffffffffffffffffffffffffffffffffffffffff1681526020019081526020015f2082815481106105a6576105a561209e565b5b905f5260205f2090600402019050806003015f9054906101000a900460ff1615610605576040517f08c379a00000000000000000000000000000000000000000000000000000000081526004016105fc90612115565b60405180910390fd5b806002015442101561064c576040517f08c379a00000000000000000000000000000000000000000000000000000000081526004016106439061217d565b60405180910390fd5b5f816001015490505f825f015f9054906101000a900473ffffffffffffffffffffffffffffffffffffffff1690506001836003015f6101000a81548160ff0219169083151502179055505f83600101819055506106ca33838373ffffffffffffffffffffffffffffffffffffffff166115019092919063ffffffff16565b833373ffffffffffffffffffffffffffffffffffffffff167f92ccf450a286a957af52509bc1c9939d1a6a481783e142e41e2499f0bb66ebc6846040516107119190611d3d565b60405180910390a35050506107246114e7565b50565b61072f611554565b5f73ffffffffffffffffffffffffffffffffffffffff168173ffffffffffffffffffffffffffffffffffffffff160361079d576040517f08c379a0000000000000000000000000000000000000000000000000000000008152600401610794906121e5565b60405180910390fd5b8073ffffffffffffffffffffffffffffffffffffffff1660015f9054906101000a900473ffffffffffffffffffffffffffffffffffffffff1673ffffffffffffffffffffffffffffffffffffffff167fca394f95d8dbf1e8b2e76b9a8da90cacce1da85181a65508dab13212dc1df53b60405160405180910390a38060015f6101000a81548173ffffffffffffffffffffffffffffffffffffffff021916908373ffffffffffffffffffffffffffffffffffffffff16021790555050565b60608282905067ffffffffffffffff81111561087a57610879612203565b5b6040519080825280602002602001820160405280156108a85781602001602082028036833780820191505090505b5090505f5f90505b838390508110156109e1575f73ffffffffffffffffffffffffffffffffffffffff168484838181106108e5576108e461209e565b5b90506020020160208101906108fa9190611915565b73ffffffffffffffffffffffffffffffffffffffff16146109d4578383828181106109285761092761209e565b5b905060200201602081019061093d9190611915565b73ffffffffffffffffffffffffffffffffffffffff166370a08231866040518263ffffffff1660e01b81526004016109759190611c28565b602060405180830381865afa158015610990573d5f5f3e3d5ffd5b505050506040513d601f19601f820116820180604052508101906109b49190612244565b8282815181106109c7576109c661209e565b5b6020026020010181815250505b80806001019150506108b0565b509392505050565b6109f1611554565b6109fa5f6115db565b565b606060025f8373ffffffffffffffffffffffffffffffffffffffff1673ffffffffffffffffffffffffffffffffffffffff1681526020019081526020015f20805480602002602001604051908101604052809291908181526020015f905b82821015610b0c578382905f5260205f2090600402016040518060800160405290815f82015f9054906101000a900473ffffffffffffffffffffffffffffffffffffffff1673ffffffffffffffffffffffffffffffffffffffff1673ffffffffffffffffffffffffffffffffffffffff1681526020016001820154815260200160028201548152602001600382015f9054906101000a900460ff16151515158152505081526020019060010190610a5a565b505050509050919050565b5f5f5f9054906101000a900473ffffffffffffffffffffffffffffffffffffffff16905090565b610b46611554565b610b78610b51610b17565b828473ffffffffffffffffffffffffffffffffffffffff166115019092919063ffffffff16565b5050565b5f610b85611470565b5f73ffffffffffffffffffffffffffffffffffffffff168673ffffffffffffffffffffffffffffffffffffffff1603610bf3576040517f08c379a0000000000000000000000000000000000000000000000000000000008152600401610bea906122b9565b60405180910390fd5b5f73ffffffffffffffffffffffffffffffffffffffff168573ffffffffffffffffffffffffffffffffffffffff1603610c61576040517f08c379a0000000000000000000000000000000000000000000000000000000008152600401610c5890612321565b60405180910390fd5b5f8411610ca3576040517f08c379a0000000000000000000000000000000000000000000000000000000008152600401610c9a90611f50565b60405180910390fd5b610cd03330868973ffffffffffffffffffffffffffffffffffffffff16611492909392919063ffffffff16565b8573ffffffffffffffffffffffffffffffffffffffff1663095ea7b360015f9054906101000a900473ffffffffffffffffffffffffffffffffffffffff16866040518363ffffffff1660e01b8152600401610d2c92919061233f565b6020604051808303815f875af1158015610d48573d5f5f3e3d5ffd5b505050506040513d601f19601f82011682018060405250810190610d6c9190612390565b505f6040518061010001604052808873ffffffffffffffffffffffffffffffffffffffff1681526020018773ffffffffffffffffffffffffffffffffffffffff1681526020018462ffffff1681526020013373ffffffffffffffffffffffffffffffffffffffff16815260200161012c42610de79190612044565b81526020018681526020018581526020015f73ffffffffffffffffffffffffffffffffffffffff1681525090505f5f60015f9054906101000a900473ffffffffffffffffffffffffffffffffffffffff1673ffffffffffffffffffffffffffffffffffffffff1683604051602401610e5f9190612479565b6040516020818303038152906040527f414bf389000000000000000000000000000000000000000000000000000000007bffffffffffffffffffffffffffffffffffffffffffffffffffffffff19166020820180517bffffffffffffffffffffffffffffffffffffffffffffffffffffffff8381831617835250505050604051610ee991906124e5565b5f604051808303815f865af19150503d805f8114610f22576040519150601f19603f3d011682016040523d82523d5f602084013e610f27565b606091505b509150915081610f6c576040517f08c379a0000000000000000000000000000000000000000000000000000000008152600401610f6390612545565b60405180910390fd5b80806020019051810190610f809190612244565b93503373ffffffffffffffffffffffffffffffffffffffff167f6782190c91d4a7e8ad2a867deed6ec0a970cab8ff137ae2bd4abd92b3810f4d38a8a8a88604051610fce9493929190612563565b60405180910390a2505050610fe16114e7565b95945050505050565b6002602052815f5260405f208181548110611003575f80fd5b905f5260205f2090600402015f9150915050805f015f9054906101000a900473ffffffffffffffffffffffffffffffffffffffff1690806001015490806002015490806003015f9054906101000a900460ff16905084565b60015f9054906101000a900473ffffffffffffffffffffffffffffffffffffffff1681565b611088611470565b5f73ffffffffffffffffffffffffffffffffffffffff168573ffffffffffffffffffffffffffffffffffffffff16036110f6576040517f08c379a00000000000000000000000000000000000000000000000000000000081526004016110ed90611ee8565b60405180910390fd5b5f848490501161113b576040517f08c379a0000000000000000000000000000000000000000000000000000000008152600401611132906125f0565b60405180910390fd5b818190508484905014611183576040517f08c379a000000000000000000000000000000000000000000000000000000000815260040161117a90612658565b60405180910390fd5b5f5f90505f5f90505b838390508110156112bb575f73ffffffffffffffffffffffffffffffffffffffff168686838181106111c1576111c061209e565b5b90506020020160208101906111d69190611915565b73ffffffffffffffffffffffffffffffffffffffff160361122c576040517f08c379a0000000000000000000000000000000000000000000000000000000008152600401611223906126c0565b60405180910390fd5b5f8484838181106112405761123f61209e565b5b9050602002013511611287576040517f08c379a000000000000000000000000000000000000000000000000000000000815260040161127e90611f50565b60405180910390fd5b83838281811061129a5761129961209e565b5b90506020020135826112ac9190612044565b9150808060010191505061118c565b506112e93330838973ffffffffffffffffffffffffffffffffffffffff16611492909392919063ffffffff16565b5f5f90505b858590508110156113715761136486868381811061130f5761130e61209e565b5b90506020020160208101906113249190611915565b8585848181106113375761133661209e565b5b905060200201358973ffffffffffffffffffffffffffffffffffffffff166115019092919063ffffffff16565b80806001019150506112ee565b508573ffffffffffffffffffffffffffffffffffffffff163373ffffffffffffffffffffffffffffffffffffffff167f0b1267de573b17f559b4b84a0dfa030c44a3055bca07d588af64dd60e194edbe83888890506040516113d4929190612077565b60405180910390a3506113e56114e7565b5050505050565b6113f4611554565b5f73ffffffffffffffffffffffffffffffffffffffff168173ffffffffffffffffffffffffffffffffffffffff1603611464575f6040517f1e4fbdf700000000000000000000000000000000000000000000000000000000815260040161145b9190611c28565b60405180910390fd5b61146d816115db565b50565b61147861169c565b600261148a6114856116dd565b611706565b5f0181905550565b6114a084848484600161170f565b6114e157836040517f5274afe70000000000000000000000000000000000000000000000000000000081526004016114d89190611c28565b60405180910390fd5b50505050565b60016114f96114f46116dd565b611706565b5f0181905550565b61150e8383836001611780565b61154f57826040517f5274afe70000000000000000000000000000000000000000000000000000000081526004016115469190611c28565b60405180910390fd5b505050565b61155c6117e2565b73ffffffffffffffffffffffffffffffffffffffff1661157a610b17565b73ffffffffffffffffffffffffffffffffffffffff16146115d95761159d6117e2565b6040517f118cdaa70000000000000000000000000000000000000000000000000000000081526004016115d09190611c28565b60405180910390fd5b565b5f5f5f9054906101000a900473ffffffffffffffffffffffffffffffffffffffff169050815f5f6101000a81548173ffffffffffffffffffffffffffffffffffffffff021916908373ffffffffffffffffffffffffffffffffffffffff1602179055508173ffffffffffffffffffffffffffffffffffffffff168173ffffffffffffffffffffffffffffffffffffffff167f8be0079c531659141344cd1fd0a4f28419497f9722a3daafe3b4186f6b6457e060405160405180910390a35050565b6116a46117e9565b156116db576040517f3ee5aeb500000000000000000000000000000000000000000000000000000000815260040160405180910390fd5b565b5f7f9b779b17422d0df92223018b32b4d1fa46e071723d6817e2486d003becc55f005f1b905090565b5f819050919050565b5f5f6323b872dd60e01b9050604051815f525f1960601c87166004525f1960601c86166024528460445260205f60645f5f8c5af1925060015f5114831661176d578383151615611761573d5f823e3d81fd5b5f883b113d1516831692505b806040525f606052505095945050505050565b5f5f63a9059cbb60e01b9050604051815f525f1960601c86166004528460245260205f60445f5f8b5af1925060015f511483166117d45783831516156117c8573d5f823e3d81fd5b5f873b113d1516831692505b806040525050949350505050565b5f33905090565b5f60026117fc6117f76116dd565b611706565b5f015414905090565b5f5ffd5b5f5ffd5b5f73ffffffffffffffffffffffffffffffffffffffff82169050919050565b5f6118368261180d565b9050919050565b6118468161182c565b8114611850575f5ffd5b50565b5f813590506118618161183d565b92915050565b5f819050919050565b61187981611867565b8114611883575f5ffd5b50565b5f8135905061189481611870565b92915050565b5f5f5f606084860312156118b1576118b0611805565b5b5f6118be86828701611853565b93505060206118cf86828701611886565b92505060406118e086828701611886565b9150509250925092565b5f602082840312156118ff576118fe611805565b5b5f61190c84828501611886565b91505092915050565b5f6020828403121561192a57611929611805565b5b5f61193784828501611853565b91505092915050565b5f5ffd5b5f5ffd5b5f5ffd5b5f5f83601f84011261196157611960611940565b5b8235905067ffffffffffffffff81111561197e5761197d611944565b5b60208301915083602082028301111561199a57611999611948565b5b9250929050565b5f5f5f604084860312156119b8576119b7611805565b5b5f6119c586828701611853565b935050602084013567ffffffffffffffff8111156119e6576119e5611809565b5b6119f28682870161194c565b92509250509250925092565b5f81519050919050565b5f82825260208201905092915050565b5f819050602082019050919050565b611a3081611867565b82525050565b5f611a418383611a27565b60208301905092915050565b5f602082019050919050565b5f611a63826119fe565b611a6d8185611a08565b9350611a7883611a18565b805f5b83811015611aa8578151611a8f8882611a36565b9750611a9a83611a4d565b925050600181019050611a7b565b5085935050505092915050565b5f6020820190508181035f830152611acd8184611a59565b905092915050565b5f81519050919050565b5f82825260208201905092915050565b5f819050602082019050919050565b611b078161182c565b82525050565b5f8115159050919050565b611b2181611b0d565b82525050565b608082015f820151611b3b5f850182611afe565b506020820151611b4e6020850182611a27565b506040820151611b616040850182611a27565b506060820151611b746060850182611b18565b50505050565b5f611b858383611b27565b60808301905092915050565b5f602082019050919050565b5f611ba782611ad5565b611bb18185611adf565b9350611bbc83611aef565b805f5b83811015611bec578151611bd38882611b7a565b9750611bde83611b91565b925050600181019050611bbf565b5085935050505092915050565b5f6020820190508181035f830152611c118184611b9d565b905092915050565b611c228161182c565b82525050565b5f602082019050611c3b5f830184611c19565b92915050565b5f5f60408385031215611c5757611c56611805565b5b5f611c6485828601611853565b9250506020611c7585828601611886565b9150509250929050565b5f62ffffff82169050919050565b611c9681611c7f565b8114611ca0575f5ffd5b50565b5f81359050611cb181611c8d565b92915050565b5f5f5f5f5f60a08688031215611cd057611ccf611805565b5b5f611cdd88828901611853565b9550506020611cee88828901611853565b9450506040611cff88828901611886565b9350506060611d1088828901611886565b9250506080611d2188828901611ca3565b9150509295509295909350565b611d3781611867565b82525050565b5f602082019050611d505f830184611d2e565b92915050565b611d5f81611b0d565b82525050565b5f608082019050611d785f830187611c19565b611d856020830186611d2e565b611d926040830185611d2e565b611d9f6060830184611d56565b95945050505050565b5f5f83601f840112611dbd57611dbc611940565b5b8235905067ffffffffffffffff811115611dda57611dd9611944565b5b602083019150836020820283011115611df657611df5611948565b5b9250929050565b5f5f5f5f5f60608688031215611e1657611e15611805565b5b5f611e2388828901611853565b955050602086013567ffffffffffffffff811115611e4457611e43611809565b5b611e508882890161194c565b9450945050604086013567ffffffffffffffff811115611e7357611e72611809565b5b611e7f88828901611da8565b92509250509295509295909350565b5f82825260208201905092915050565b7f496e76616c696420746f6b656e000000000000000000000000000000000000005f82015250565b5f611ed2600d83611e8e565b9150611edd82611e9e565b602082019050919050565b5f6020820190508181035f830152611eff81611ec6565b9050919050565b7f416d6f756e74206d757374206265203e203000000000000000000000000000005f82015250565b5f611f3a601283611e8e565b9150611f4582611f06565b602082019050919050565b5f6020820190508181035f830152611f6781611f2e565b9050919050565b7f4475726174696f6e206d757374206265203e20300000000000000000000000005f82015250565b5f611fa2601483611e8e565b9150611fad82611f6e565b602082019050919050565b5f6020820190508181035f830152611fcf81611f96565b9050919050565b7f4e487b71000000000000000000000000000000000000000000000000000000005f52601160045260245ffd5b5f61200d82611867565b915061201883611867565b925082820261202681611867565b9150828204841483151761203d5761203c611fd6565b5b5092915050565b5f61204e82611867565b915061205983611867565b925082820190508082111561207157612070611fd6565b5b92915050565b5f60408201905061208a5f830185611d2e565b6120976020830184611d2e565b9392505050565b7f4e487b71000000000000000000000000000000000000000000000000000000005f52603260045260245ffd5b7f416c72656164792077697468647261776e0000000000000000000000000000005f82015250565b5f6120ff601183611e8e565b915061210a826120cb565b602082019050919050565b5f6020820190508181035f83015261212c816120f3565b9050919050565b7f5374696c6c206c6f636b656400000000000000000000000000000000000000005f82015250565b5f612167600c83611e8e565b915061217282612133565b602082019050919050565b5f6020820190508181035f8301526121948161215b565b9050919050565b7f496e76616c696420726f757465720000000000000000000000000000000000005f82015250565b5f6121cf600e83611e8e565b91506121da8261219b565b602082019050919050565b5f6020820190508181035f8301526121fc816121c3565b9050919050565b7f4e487b71000000000000000000000000000000000000000000000000000000005f52604160045260245ffd5b5f8151905061223e81611870565b92915050565b5f6020828403121561225957612258611805565b5b5f61226684828501612230565b91505092915050565b7f496e76616c696420746f6b656e496e00000000000000000000000000000000005f82015250565b5f6122a3600f83611e8e565b91506122ae8261226f565b602082019050919050565b5f6020820190508181035f8301526122d081612297565b9050919050565b7f496e76616c696420746f6b656e4f7574000000000000000000000000000000005f82015250565b5f61230b601083611e8e565b9150612316826122d7565b602082019050919050565b5f6020820190508181035f830152612338816122ff565b9050919050565b5f6040820190506123525f830185611c19565b61235f6020830184611d2e565b9392505050565b61236f81611b0d565b8114612379575f5ffd5b50565b5f8151905061238a81612366565b92915050565b5f602082840312156123a5576123a4611805565b5b5f6123b28482850161237c565b91505092915050565b6123c481611c7f565b82525050565b6123d38161180d565b82525050565b61010082015f8201516123ee5f850182611afe565b5060208201516124016020850182611afe565b50604082015161241460408501826123bb565b5060608201516124276060850182611afe565b50608082015161243a6080850182611a27565b5060a082015161244d60a0850182611a27565b5060c082015161246060c0850182611a27565b5060e082015161247360e08501826123ca565b50505050565b5f6101008201905061248d5f8301846123d9565b92915050565b5f81519050919050565b5f81905092915050565b8281835e5f83830152505050565b5f6124bf82612493565b6124c9818561249d565b93506124d98185602086016124a7565b80840191505092915050565b5f6124f082846124b5565b915081905092915050565b7f53776170206661696c65640000000000000000000000000000000000000000005f82015250565b5f61252f600b83611e8e565b915061253a826124fb565b602082019050919050565b5f6020820190508181035f83015261255c81612523565b9050919050565b5f6080820190506125765f830187611c19565b6125836020830186611c19565b6125906040830185611d2e565b61259d6060830184611d2e565b95945050505050565b7f4e6f20726563697069656e7473000000000000000000000000000000000000005f82015250565b5f6125da600d83611e8e565b91506125e5826125a6565b602082019050919050565b5f6020820190508181035f830152612607816125ce565b9050919050565b7f4c656e677468206d69736d6174636800000000000000000000000000000000005f82015250565b5f612642600f83611e8e565b915061264d8261260e565b602082019050919050565b5f6020820190508181035f83015261266f81612636565b9050919050565b7f496e76616c696420726563697069656e740000000000000000000000000000005f82015250565b5f6126aa601183611e8e565b91506126b582612676565b602082019050919050565b5f6020820190508181035f8301526126d78161269e565b905091905056fea26469706673582212209e4522e14d8f5aa581b5d8d1f9d3beda0d0ddc3b402bf7bcb2df3cf71354993e64736f6c63430008230033","linkReferences":{}},"methodIdentifiers":{"batchPay(address,address[],uint256[])":"dcf06eb8","deposit(address,uint256,uint256)":"0efe6a8b","getBalances(address,address[])":"6a385ae9","getLocks(address)":"719f3089","locks(address,uint256)":"b425f802","owner()":"8da5cb5b","recoverToken(address,uint256)":"b29a8140","renounceOwnership()":"715018a6","setSwapRouter(address)":"41273657","swap(address,address,uint256,uint256,uint24)":"b40b7e0b","swapRouter()":"c31c9c07","transferOwnership(address)":"f2fde38b","withdraw(uint256)":"2e1a7d4d"},"id":0}