{"abi":[{"type":"constructor","inputs":[{"name":"_swapRouter","type":"address","internalType":"address"}],"stateMutability":"nonpayable"},{"type":"function","name":"batchPay","inputs":[{"name":"token","type":"address","internalType":"address"},{"name":"recipients","type":"address[]","internalType":"address[]"},{"name":"amounts","type":"uint256[]","internalType":"uint256[]"}],"outputs":[],"stateMutability":"nonpayable"},{"type":"function","name":"deposit","inputs":[{"name":"token","type":"address","internalType":"address"},{"name":"amount","type":"uint256","internalType":"uint256"},{"name":"durationDays","type":"uint256","internalType":"uint256"}],"outputs":[],"stateMutability":"nonpayable"},{"type":"function","name":"getBalances","inputs":[{"name":"wallet","type":"address","internalType":"address"},{"name":"tokens","type":"address[]","internalType":"address[]"}],"outputs":[{"name":"balances","type":"uint256[]","internalType":"uint256[]"}],"stateMutability":"view"},{"type":"function","name":"getLocks","inputs":[{"name":"wallet","type":"address","internalType":"address"}],"outputs":[{"name":"","type":"tuple[]","internalType":"struct FinanceManager.Lock[]","components":[{"name":"token","type":"address","internalType":"address"},{"name":"amount","type":"uint256","internalType":"uint256"},{"name":"unlockTime","type":"uint256","internalType":"uint256"},{"name":"withdrawn","type":"bool","internalType":"bool"}]}],"stateMutability":"view"},{"type":"function","name":"locks","inputs":[{"name":"","type":"address","internalType":"address"},{"name":"","type":"uint256","internalType":"uint256"}],"outputs":[{"name":"token","type":"address","internalType":"address"},{"name":"amount","type":"uint256","internalType":"uint256"},{"name":"unlockTime","type":"uint256","internalType":"uint256"},{"name":"withdrawn","type":"bool","internalType":"bool"}],"stateMutability":"view"},{"type":"function","name":"owner","inputs":[],"outputs":[{"name":"","type":"address","internalType":"address"}],"stateMutability":"view"},{"type":"function","name":"recoverToken","inputs":[{"name":"token","type":"address","internalType":"address"},{"name":"amount","type":"uint256","internalType":"uint256"}],"outputs":[],"stateMutability":"nonpayable"},{"type":"function","name":"renounceOwnership","inputs":[],"outputs":[],"stateMutability":"nonpayable"},{"type":"function","name":"setSwapRouter","inputs":[{"name":"newRouter","type":"address","internalType":"address"}],"outputs":[],"stateMutability":"nonpayable"},{"type":"function","name":"swap","inputs":[{"name":"tokenIn","type":"address","internalType":"address"},{"name":"tokenOut","type":"address","internalType":"address"},{"name":"amountIn","type":"uint256","internalType":"uint256"},{"name":"amountOutMin","type":"uint256","internalType":"uint256"},{"name":"fee","type":"uint24","internalType":"uint24"}],"outputs":[{"name":"amountOut","type":"uint256","internalType":"uint256"}],"stateMutability":"nonpayable"},{"type":"function","name":"swapRouter","inputs":[],"outputs":[{"name":"","type":"address","internalType":"address"}],"stateMutability":"view"},{"type":"function","name":"transferOwnership","inputs":[{"name":"newOwner","type":"address","internalType":"address"}],"outputs":[],"stateMutability":"nonpayable"},{"type":"function","name":"withdraw","inputs":[{"name":"lockIndex","type":"uint256","internalType":"uint256"}],"outputs":[],"stateMutability":"nonpayable"},{"type":"event","name":"BatchPaid","inputs":[{"name":"sender","type":"address","indexed":true,"internalType":"address"},{"name":"token","type":"address","indexed":true,"internalType":"address"},{"name":"totalAmount","type":"uint256","indexed":false,"internalType":"uint256"},{"name":"recipientCount","type":"uint256","indexed":false,"internalType":"uint256"}],"anonymous":false},{"type":"event","name":"Deposited","inputs":[{"name":"user","type":"address","indexed":true,"internalType":"address"},{"name":"token","type":"address","indexed":true,"internalType":"address"},{"name":"amount","type":"uint256","indexed":false,"internalType":"uint256"},{"name":"unlockTime","type":"uint256","indexed":false,"internalType":"uint256"}],"anonymous":false},{"type":"event","name":"OwnershipTransferred","inputs":[{"name":"previousOwner","type":"address","indexed":true,"internalType":"address"},{"name":"newOwner","type":"address","indexed":true,"internalType":"address"}],"anonymous":false},{"type":"event","name":"SwapRouterUpdated","inputs":[{"name":"oldRouter","type":"address","indexed":true,"internalType":"address"},{"name":"newRouter","type":"address","indexed":true,"internalType":"address"}],"anonymous":false},{"type":"event","name":"Swapped","inputs":[{"name":"user","type":"address","indexed":true,"internalType":"address"},{"name":"tokenIn","type":"address","indexed":false,"internalType":"address"},{"name":"tokenOut","type":"address","indexed":false,"internalType":"address"},{"name":"amountIn","type":"uint256","indexed":false,"internalType":"uint256"},{"name":"amountOut","type":"uint256","indexed":false,"internalType":"uint256"}],"anonymous":false},{"type":"event","name":"Withdrawn","inputs":[{"name":"user","type":"address","indexed":true,"internalType":"address"},{"name":"lockIndex","type":"uint256","indexed":true,"internalType":"uint256"},{"name":"amount","type":"uint256","indexed":false,"internalType":"uint256"}],"anonymous":false},{"type":"error","name":"OwnableInvalidOwner","inputs":[{"name":"owner","type":"address","internalType":"address"}]},{"type":"error","name":"OwnableUnauthorizedAccount","inputs":[{"name":"account","type":"address","internalType":"address"}]},{"type":"error","name":"ReentrancyGuardReentrantCall","inputs":[]},{"type":"error","name":"SafeERC20FailedOperation","inputs":[{"name":"token","type":"address","internalType":"address"}]}],"bytecode":{"object":"0x608060405234801561000f575f5ffd5b50604051612ac9380380612ac9833981810160405281019061003191906102db565b335f73ffffffffffffffffffffffffffffffffffffffff168173ffffffffffffffffffffffffffffffffffffffff16036100a2575f6040517f1e4fbdf70000000000000000000000000000000000000000000000000000000081526004016100999190610315565b60405180910390fd5b6100b18161018a60201b60201c565b5060016100d06100c561024b60201b60201c565b61027460201b60201c565b5f01819055505f73ffffffffffffffffffffffffffffffffffffffff168173ffffffffffffffffffffffffffffffffffffffff1603610144576040517f08c379a000000000000000000000000000000000000000000000000000000000815260040161013b90610388565b60405180910390fd5b8060015f6101000a81548173ffffffffffffffffffffffffffffffffffffffff021916908373ffffffffffffffffffffffffffffffffffffffff160217905550506103a6565b5f5f5f9054906101000a900473ffffffffffffffffffffffffffffffffffffffff169050815f5f6101000a81548173ffffffffffffffffffffffffffffffffffffffff021916908373ffffffffffffffffffffffffffffffffffffffff1602179055508173ffffffffffffffffffffffffffffffffffffffff168173ffffffffffffffffffffffffffffffffffffffff167f8be0079c531659141344cd1fd0a4f28419497f9722a3daafe3b4186f6b6457e060405160405180910390a35050565b5f7f9b779b17422d0df92223018b32b4d1fa46e071723d6817e2486d003becc55f005f1b905090565b5f819050919050565b5f5ffd5b5f73ffffffffffffffffffffffffffffffffffffffff82169050919050565b5f6102aa82610281565b9050919050565b6102ba816102a0565b81146102c4575f5ffd5b50565b5f815190506102d5816102b1565b92915050565b5f602082840312156102f0576102ef61027d565b5b5f6102fd848285016102c7565b91505092915050565b61030f816102a0565b82525050565b5f6020820190506103285f830184610306565b92915050565b5f82825260208201905092915050565b7f496e76616c696420726f757465720000000000000000000000000000000000005f82015250565b5f610372600e8361032e565b915061037d8261033e565b602082019050919050565b5f6020820190508181035f83015261039f81610366565b9050919050565b612716806103b35f395ff3fe608060405234801561000f575f5ffd5b50600436106100cd575f3560e01c80638da5cb5b1161008a578063b425f80211610064578063b425f802146101f9578063c31c9c071461022c578063dcf06eb81461024a578063f2fde38b14610266576100cd565b80638da5cb5b1461018f578063b29a8140146101ad578063b40b7e0b146101c9576100cd565b80630efe6a8b146100d15780632e1a7d4d146100ed57806341273657146101095780636a385ae914610125578063715018a614610155578063719f30891461015f575b5f5ffd5b6100eb60048036038101906100e6919061189c565b610282565b005b610107600480360381019061010291906118ec565b610550565b005b610123600480360381019061011e9190611917565b610729565b005b61013f600480360381019061013a91906119a3565b61085d565b60405161014c9190611ab7565b60405180910390f35b61015d6109eb565b005b61017960048036038101906101749190611917565b6109fe565b6040516101869190611bfb565b60405180910390f35b610197610b19565b6040516101a49190611c2a565b60405180910390f35b6101c760048036038101906101c29190611c43565b610b40565b005b6101e360048036038101906101de9190611cb9565b610b7e565b6040516101f09190611d3f565b60405180910390f35b610213600480360381019061020e9190611c43565b610fec565b6040516102239493929190611d67565b60405180910390f35b61023461105d565b6040516102419190611c2a565b60405180910390f35b610264600480360381019061025f9190611dff565b611082565b005b610280600480360381019061027b9190611917565b6113ee565b005b61028a611472565b5f73ffffffffffffffffffffffffffffffffffffffff168373ffffffffffffffffffffffffffffffffffffffff16036102f8576040517f08c379a00000000000000000000000000000000000000000000000000000000081526004016102ef90611eea565b60405180910390fd5b5f821161033a576040517f08c379a000000000000000000000000000000000000000000000000000000000815260040161033190611f52565b60405180910390fd5b5f811161037c576040517f08c379a000000000000000000000000000000000000000000000000000000000815260040161037390611fba565b60405180910390fd5b6103a93330848673ffffffffffffffffffffffffffffffffffffffff16611494909392919063ffffffff16565b5f62015180826103b99190612005565b426103c49190612046565b905060025f3373ffffffffffffffffffffffffffffffffffffffff1673ffffffffffffffffffffffffffffffffffffffff1681526020019081526020015f2060405180608001604052808673ffffffffffffffffffffffffffffffffffffffff1681526020018581526020018381526020015f1515815250908060018154018082558091505060019003905f5260205f2090600402015f909190919091505f820151815f015f6101000a81548173ffffffffffffffffffffffffffffffffffffffff021916908373ffffffffffffffffffffffffffffffffffffffff16021790555060208201518160010155604082015181600201556060820151816003015f6101000a81548160ff02191690831515021790555050508373ffffffffffffffffffffffffffffffffffffffff163373ffffffffffffffffffffffffffffffffffffffff167ff5681f9d0db1b911ac18ee83d515a1cf1051853a9eae418316a2fdf7dea427c5858460405161053a929190612079565b60405180910390a35061054b6114e9565b505050565b610558611472565b5f60025f3373ffffffffffffffffffffffffffffffffffffffff1673ffffffffffffffffffffffffffffffffffffffff1681526020019081526020015f2082815481106105a8576105a76120a0565b5b905f5260205f2090600402019050806003015f9054906101000a900460ff1615610607576040517f08c379a00000000000000000000000000000000000000000000000000000000081526004016105fe90612117565b60405180910390fd5b806002015442101561064e576040517f08c379a00000000000000000000000000000000000000000000000000000000081526004016106459061217f565b60405180910390fd5b5f816001015490505f825f015f9054906101000a900473ffffffffffffffffffffffffffffffffffffffff1690506001836003015f6101000a81548160ff0219169083151502179055505f83600101819055506106cc33838373ffffffffffffffffffffffffffffffffffffffff166115039092919063ffffffff16565b833373ffffffffffffffffffffffffffffffffffffffff167f92ccf450a286a957af52509bc1c9939d1a6a481783e142e41e2499f0bb66ebc6846040516107139190611d3f565b60405180910390a35050506107266114e9565b50565b610731611556565b5f73ffffffffffffffffffffffffffffffffffffffff168173ffffffffffffffffffffffffffffffffffffffff160361079f576040517f08c379a0000000000000000000000000000000000000000000000000000000008152600401610796906121e7565b60405180910390fd5b8073ffffffffffffffffffffffffffffffffffffffff1660015f9054906101000a900473ffffffffffffffffffffffffffffffffffffffff1673ffffffffffffffffffffffffffffffffffffffff167fca394f95d8dbf1e8b2e76b9a8da90cacce1da85181a65508dab13212dc1df53b60405160405180910390a38060015f6101000a81548173ffffffffffffffffffffffffffffffffffffffff021916908373ffffffffffffffffffffffffffffffffffffffff16021790555050565b60608282905067ffffffffffffffff81111561087c5761087b612205565b5b6040519080825280602002602001820160405280156108aa5781602001602082028036833780820191505090505b5090505f5f90505b838390508110156109e3575f73ffffffffffffffffffffffffffffffffffffffff168484838181106108e7576108e66120a0565b5b90506020020160208101906108fc9190611917565b73ffffffffffffffffffffffffffffffffffffffff16146109d65783838281811061092a576109296120a0565b5b905060200201602081019061093f9190611917565b73ffffffffffffffffffffffffffffffffffffffff166370a08231866040518263ffffffff1660e01b81526004016109779190611c2a565b602060405180830381865afa158015610992573d5f5f3e3d5ffd5b505050506040513d601f19601f820116820180604052508101906109b69190612246565b8282815181106109c9576109c86120a0565b5b6020026020010181815250505b80806001019150506108b2565b509392505050565b6109f3611556565b6109fc5f6115dd565b565b606060025f8373ffffffffffffffffffffffffffffffffffffffff1673ffffffffffffffffffffffffffffffffffffffff1681526020019081526020015f20805480602002602001604051908101604052809291908181526020015f905b82821015610b0e578382905f5260205f2090600402016040518060800160405290815f82015f9054906101000a900473ffffffffffffffffffffffffffffffffffffffff1673ffffffffffffffffffffffffffffffffffffffff1673ffffffffffffffffffffffffffffffffffffffff1681526020016001820154815260200160028201548152602001600382015f9054906101000a900460ff16151515158152505081526020019060010190610a5c565b505050509050919050565b5f5f5f9054906101000a900473ffffffffffffffffffffffffffffffffffffffff16905090565b610b48611556565b610b7a610b53610b19565b828473ffffffffffffffffffffffffffffffffffffffff166115039092919063ffffffff16565b5050565b5f610b87611472565b5f73ffffffffffffffffffffffffffffffffffffffff168673ffffffffffffffffffffffffffffffffffffffff1603610bf5576040517f08c379a0000000000000000000000000000000000000000000000000000000008152600401610bec906122bb565b60405180910390fd5b5f73ffffffffffffffffffffffffffffffffffffffff168573ffffffffffffffffffffffffffffffffffffffff1603610c63576040517f08c379a0000000000000000000000000000000000000000000000000000000008152600401610c5a90612323565b60405180910390fd5b5f8411610ca5576040517f08c379a0000000000000000000000000000000000000000000000000000000008152600401610c9c90611f52565b60405180910390fd5b610cd23330868973ffffffffffffffffffffffffffffffffffffffff16611494909392919063ffffffff16565b8573ffffffffffffffffffffffffffffffffffffffff1663095ea7b360015f9054906101000a900473ffffffffffffffffffffffffffffffffffffffff16866040518363ffffffff1660e01b8152600401610d2e929190612341565b6020604051808303815f875af1158015610d4a573d5f5f3e3d5ffd5b505050506040513d601f19601f82011682018060405250810190610d6e9190612392565b505f6040518061010001604052808873ffffffffffffffffffffffffffffffffffffffff1681526020018773ffffffffffffffffffffffffffffffffffffffff1681526020018462ffffff1681526020013373ffffffffffffffffffffffffffffffffffffffff16815260200161012c42610de99190612046565b81526020018681526020018581526020015f73ffffffffffffffffffffffffffffffffffffffff1681525090505f5f60015f9054906101000a900473ffffffffffffffffffffffffffffffffffffffff1673ffffffffffffffffffffffffffffffffffffffff1683604051602401610e61919061247b565b6040516020818303038152906040527f414bf389000000000000000000000000000000000000000000000000000000007bffffffffffffffffffffffffffffffffffffffffffffffffffffffff19166020820180517bffffffffffffffffffffffffffffffffffffffffffffffffffffffff8381831617835250505050604051610eeb91906124e7565b5f604051808303815f865af19150503d805f8114610f24576040519150601f19603f3d011682016040523d82523d5f602084013e610f29565b606091505b509150915081610f6e576040517f08c379a0000000000000000000000000000000000000000000000000000000008152600401610f6590612547565b60405180910390fd5b80806020019051810190610f829190612246565b93503373ffffffffffffffffffffffffffffffffffffffff167f6782190c91d4a7e8ad2a867deed6ec0a970cab8ff137ae2bd4abd92b3810f4d38a8a8a88604051610fd09493929190612565565b60405180910390a2505050610fe36114e9565b95945050505050565b6002602052815f5260405f208181548110611005575f80fd5b905f5260205f2090600402015f9150915050805f015f9054906101000a900473ffffffffffffffffffffffffffffffffffffffff1690806001015490806002015490806003015f9054906101000a900460ff16905084565b60015f9054906101000a900473ffffffffffffffffffffffffffffffffffffffff1681565b61108a611472565b5f73ffffffffffffffffffffffffffffffffffffffff168573ffffffffffffffffffffffffffffffffffffffff16036110f8576040517f08c379a00000000000000000000000000000000000000000000000000000000081526004016110ef90611eea565b60405180910390fd5b5f848490501161113d576040517f08c379a0000000000000000000000000000000000000000000000000000000008152600401611134906125f2565b60405180910390fd5b818190508484905014611185576040517f08c379a000000000000000000000000000000000000000000000000000000000815260040161117c9061265a565b60405180910390fd5b5f5f90505f5f90505b838390508110156112bd575f73ffffffffffffffffffffffffffffffffffffffff168686838181106111c3576111c26120a0565b5b90506020020160208101906111d89190611917565b73ffffffffffffffffffffffffffffffffffffffff160361122e576040517f08c379a0000000000000000000000000000000000000000000000000000000008152600401611225906126c2565b60405180910390fd5b5f848483818110611242576112416120a0565b5b9050602002013511611289576040517f08c379a000000000000000000000000000000000000000000000000000000000815260040161128090611f52565b60405180910390fd5b83838281811061129c5761129b6120a0565b5b90506020020135826112ae9190612046565b9150808060010191505061118e565b506112eb3330838973ffffffffffffffffffffffffffffffffffffffff16611494909392919063ffffffff16565b5f5f90505b8585905081101561137357611366868683818110611311576113106120a0565b5b90506020020160208101906113269190611917565b858584818110611339576113386120a0565b5b905060200201358973ffffffffffffffffffffffffffffffffffffffff166115039092919063ffffffff16565b80806001019150506112f0565b508573ffffffffffffffffffffffffffffffffffffffff163373ffffffffffffffffffffffffffffffffffffffff167f0b1267de573b17f559b4b84a0dfa030c44a3055bca07d588af64dd60e194edbe83888890506040516113d6929190612079565b60405180910390a3506113e76114e9565b5050505050565b6113f6611556565b5f73ffffffffffffffffffffffffffffffffffffffff168173ffffffffffffffffffffffffffffffffffffffff1603611466575f6040517f1e4fbdf700000000000000000000000000000000000000000000000000000000815260040161145d9190611c2a565b60405180910390fd5b61146f816115dd565b50565b61147a61169e565b600261148c6114876116df565b611708565b5f0181905550565b6114a2848484846001611711565b6114e357836040517f5274afe70000000000000000000000000000000000000000000000000000000081526004016114da9190611c2a565b60405180910390fd5b50505050565b60016114fb6114f66116df565b611708565b5f0181905550565b6115108383836001611782565b61155157826040517f5274afe70000000000000000000000000000000000000000000000000000000081526004016115489190611c2a565b60405180910390fd5b505050565b61155e6117e4565b73ffffffffffffffffffffffffffffffffffffffff1661157c610b19565b73ffffffffffffffffffffffffffffffffffffffff16146115db5761159f6117e4565b6040517f118cdaa70000000000000000000000000000000000000000000000000000000081526004016115d29190611c2a565b60405180910390fd5b565b5f5f5f9054906101000a900473ffffffffffffffffffffffffffffffffffffffff169050815f5f6101000a81548173ffffffffffffffffffffffffffffffffffffffff021916908373ffffffffffffffffffffffffffffffffffffffff1602179055508173ffffffffffffffffffffffffffffffffffffffff168173ffffffffffffffffffffffffffffffffffffffff167f8be0079c531659141344cd1fd0a4f28419497f9722a3daafe3b4186f6b6457e060405160405180910390a35050565b6116a66117eb565b156116dd576040517f3ee5aeb500000000000000000000000000000000000000000000000000000000815260040160405180910390fd5b565b5f7f9b779b17422d0df92223018b32b4d1fa46e071723d6817e2486d003becc55f005f1b905090565b5f819050919050565b5f5f6323b872dd60e01b9050604051815f525f1960601c87166004525f1960601c86166024528460445260205f60645f5f8c5af1925060015f5114831661176f578383151615611763573d5f823e3d81fd5b5f883b113d1516831692505b806040525f606052505095945050505050565b5f5f63a9059cbb60e01b9050604051815f525f1960601c86166004528460245260205f60445f5f8b5af1925060015f511483166117d65783831516156117ca573d5f823e3d81fd5b5f873b113d1516831692505b806040525050949350505050565b5f33905090565b5f60026117fe6117f96116df565b611708565b5f015414905090565b5f5ffd5b5f5ffd5b5f73ffffffffffffffffffffffffffffffffffffffff82169050919050565b5f6118388261180f565b9050919050565b6118488161182e565b8114611852575f5ffd5b50565b5f813590506118638161183f565b92915050565b5f819050919050565b61187b81611869565b8114611885575f5ffd5b50565b5f8135905061189681611872565b92915050565b5f5f5f606084860312156118b3576118b2611807565b5b5f6118c086828701611855565b93505060206118d186828701611888565b92505060406118e286828701611888565b9150509250925092565b5f6020828403121561190157611900611807565b5b5f61190e84828501611888565b91505092915050565b5f6020828403121561192c5761192b611807565b5b5f61193984828501611855565b91505092915050565b5f5ffd5b5f5ffd5b5f5ffd5b5f5f83601f84011261196357611962611942565b5b8235905067ffffffffffffffff8111156119805761197f611946565b5b60208301915083602082028301111561199c5761199b61194a565b5b9250929050565b5f5f5f604084860312156119ba576119b9611807565b5b5f6119c786828701611855565b935050602084013567ffffffffffffffff8111156119e8576119e761180b565b5b6119f48682870161194e565b92509250509250925092565b5f81519050919050565b5f82825260208201905092915050565b5f819050602082019050919050565b611a3281611869565b82525050565b5f611a438383611a29565b60208301905092915050565b5f602082019050919050565b5f611a6582611a00565b611a6f8185611a0a565b9350611a7a83611a1a565b805f5b83811015611aaa578151611a918882611a38565b9750611a9c83611a4f565b925050600181019050611a7d565b5085935050505092915050565b5f6020820190508181035f830152611acf8184611a5b565b905092915050565b5f81519050919050565b5f82825260208201905092915050565b5f819050602082019050919050565b611b098161182e565b82525050565b5f8115159050919050565b611b2381611b0f565b82525050565b608082015f820151611b3d5f850182611b00565b506020820151611b506020850182611a29565b506040820151611b636040850182611a29565b506060820151611b766060850182611b1a565b50505050565b5f611b878383611b29565b60808301905092915050565b5f602082019050919050565b5f611ba982611ad7565b611bb38185611ae1565b9350611bbe83611af1565b805f5b83811015611bee578151611bd58882611b7c565b9750611be083611b93565b925050600181019050611bc1565b5085935050505092915050565b5f6020820190508181035f830152611c138184611b9f565b905092915050565b611c248161182e565b82525050565b5f602082019050611c3d5f830184611c1b565b92915050565b5f5f60408385031215611c5957611c58611807565b5b5f611c6685828601611855565b9250506020611c7785828601611888565b9150509250929050565b5f62ffffff82169050919050565b611c9881611c81565b8114611ca2575f5ffd5b50565b5f81359050611cb381611c8f565b92915050565b5f5f5f5f5f60a08688031215611cd257611cd1611807565b5b5f611cdf88828901611855565b9550506020611cf088828901611855565b9450506040611d0188828901611888565b9350506060611d1288828901611888565b9250506080611d2388828901611ca5565b9150509295509295909350565b611d3981611869565b82525050565b5f602082019050611d525f830184611d30565b92915050565b611d6181611b0f565b82525050565b5f608082019050611d7a5f830187611c1b565b611d876020830186611d30565b611d946040830185611d30565b611da16060830184611d58565b95945050505050565b5f5f83601f840112611dbf57611dbe611942565b5b8235905067ffffffffffffffff811115611ddc57611ddb611946565b5b602083019150836020820283011115611df857611df761194a565b5b9250929050565b5f5f5f5f5f60608688031215611e1857611e17611807565b5b5f611e2588828901611855565b955050602086013567ffffffffffffffff811115611e4657611e4561180b565b5b611e528882890161194e565b9450945050604086013567ffffffffffffffff811115611e7557611e7461180b565b5b611e8188828901611daa565b92509250509295509295909350565b5f82825260208201905092915050565b7f496e76616c696420746f6b656e000000000000000000000000000000000000005f82015250565b5f611ed4600d83611e90565b9150611edf82611ea0565b602082019050919050565b5f6020820190508181035f830152611f0181611ec8565b9050919050565b7f416d6f756e74206d757374206265203e203000000000000000000000000000005f82015250565b5f611f3c601283611e90565b9150611f4782611f08565b602082019050919050565b5f6020820190508181035f830152611f6981611f30565b9050919050565b7f4475726174696f6e206d757374206265203e20300000000000000000000000005f82015250565b5f611fa4601483611e90565b9150611faf82611f70565b602082019050919050565b5f6020820190508181035f830152611fd181611f98565b9050919050565b7f4e487b71000000000000000000000000000000000000000000000000000000005f52601160045260245ffd5b5f61200f82611869565b915061201a83611869565b925082820261202881611869565b9150828204841483151761203f5761203e611fd8565b5b5092915050565b5f61205082611869565b915061205b83611869565b925082820190508082111561207357612072611fd8565b5b92915050565b5f60408201905061208c5f830185611d30565b6120996020830184611d30565b9392505050565b7f4e487b71000000000000000000000000000000000000000000000000000000005f52603260045260245ffd5b7f416c72656164792077697468647261776e0000000000000000000000000000005f82015250565b5f612101601183611e90565b915061210c826120cd565b602082019050919050565b5f6020820190508181035f83015261212e816120f5565b9050919050565b7f5374696c6c206c6f636b656400000000000000000000000000000000000000005f82015250565b5f612169600c83611e90565b915061217482612135565b602082019050919050565b5f6020820190508181035f8301526121968161215d565b9050919050565b7f496e76616c696420726f757465720000000000000000000000000000000000005f82015250565b5f6121d1600e83611e90565b91506121dc8261219d565b602082019050919050565b5f6020820190508181035f8301526121fe816121c5565b9050919050565b7f4e487b71000000000000000000000000000000000000000000000000000000005f52604160045260245ffd5b5f8151905061224081611872565b92915050565b5f6020828403121561225b5761225a611807565b5b5f61226884828501612232565b91505092915050565b7f496e76616c696420746f6b656e496e00000000000000000000000000000000005f82015250565b5f6122a5600f83611e90565b91506122b082612271565b602082019050919050565b5f6020820190508181035f8301526122d281612299565b9050919050565b7f496e76616c696420746f6b656e4f7574000000000000000000000000000000005f82015250565b5f61230d601083611e90565b9150612318826122d9565b602082019050919050565b5f6020820190508181035f83015261233a81612301565b9050919050565b5f6040820190506123545f830185611c1b565b6123616020830184611d30565b9392505050565b61237181611b0f565b811461237b575f5ffd5b50565b5f8151905061238c81612368565b92915050565b5f602082840312156123a7576123a6611807565b5b5f6123b48482850161237e565b91505092915050565b6123c681611c81565b82525050565b6123d58161180f565b82525050565b61010082015f8201516123f05f850182611b00565b5060208201516124036020850182611b00565b50604082015161241660408501826123bd565b5060608201516124296060850182611b00565b50608082015161243c6080850182611a29565b5060a082015161244f60a0850182611a29565b5060c082015161246260c0850182611a29565b5060e082015161247560e08501826123cc565b50505050565b5f6101008201905061248f5f8301846123db565b92915050565b5f81519050919050565b5f81905092915050565b8281835e5f83830152505050565b5f6124c182612495565b6124cb818561249f565b93506124db8185602086016124a9565b80840191505092915050565b5f6124f282846124b7565b915081905092915050565b7f53776170206661696c65640000000000000000000000000000000000000000005f82015250565b5f612531600b83611e90565b915061253c826124fd565b602082019050919050565b5f6020820190508181035f83015261255e81612525565b9050919050565b5f6080820190506125785f830187611c1b565b6125856020830186611c1b565b6125926040830185611d30565b61259f6060830184611d30565b95945050505050565b7f4e6f20726563697069656e7473000000000000000000000000000000000000005f82015250565b5f6125dc600d83611e90565b91506125e7826125a8565b602082019050919050565b5f6020820190508181035f830152612609816125d0565b9050919050565b7f4c656e677468206d69736d6174636800000000000000000000000000000000005f82015250565b5f612644600f83611e90565b915061264f82612610565b602082019050919050565b5f6020820190508181035f83015261267181612638565b9050919050565b7f496e76616c696420726563697069656e740000000000000000000000000000005f82015250565b5f6126ac601183611e90565b91506126b782612678565b602082019050919050565b5f6020820190508181035f8301526126d9816126a0565b905091905056fea2646970667358221220453e5e889ef63da2af1c2e2bc1aad87aa766f85144829f39daef345547d145cd64736f6c63430008230033","linkReferences":{}},"methodIdentifiers":{"batchPay(address,address[],uint256[])":"dcf06eb8","deposit(address,uint256,uint256)":"0efe6a8b","getBalances(address,address[])":"6a385ae9","getLocks(address)":"719f3089","locks(address,uint256)":"b425f802","owner()":"8da5cb5b","recoverToken(address,uint256)":"b29a8140","renounceOwnership()":"715018a6","setSwapRouter(address)":"41273657","swap(address,address,uint256,uint256,uint24)":"b40b7e0b","swapRouter()":"c31c9c07","transferOwnership(address)":"f2fde38b","withdraw(uint256)":"2e1a7d4d"},"id":1}